{
  "contractName": "Donation",
  "abi": [
    {
      "constant": true,
      "inputs": [],
      "name": "getContractBalance",
      "outputs": [
        {
          "name": "",
          "type": "uint256"
        }
      ],
      "payable": false,
      "stateMutability": "view",
      "type": "function"
    },
    {
      "constant": false,
      "inputs": [
        {
          "name": "money",
          "type": "uint256"
        }
      ],
      "name": "donate",
      "outputs": [
        {
          "name": "",
          "type": "bool"
        }
      ],
      "payable": true,
      "stateMutability": "payable",
      "type": "function"
    }
  ],
  "bytecode": "0x608060405234801561001057600080fd5b50610102806100206000396000f3006080604052600436106049576000357c0100000000000000000000000000000000000000000000000000000000900463ffffffff1680636f9fb98a14604e578063f14faf6f146076575b600080fd5b348015605957600080fd5b50606060ac565b6040518082815260200191505060405180910390f35b60926004803603810190808035906020019092919050505060cb565b604051808215151515815260200191505060405180910390f35b60003073ffffffffffffffffffffffffffffffffffffffff1631905090565b6000600190509190505600a165627a7a7230582014748fb12b6aa93d93572b252c0a92ebd3e0038acade4a0464468e6db04b91e60029",
  "source": "pragma solidity ^0.4.24;\r\n//pragma experimental ABIEncoderV2;\r\n\r\ncontract Donation {\r\n   function getContractBalance() public view returns (uint){\r\n       return address(this).balance;\r\n   }\r\n   function donate(uint money) public payable returns (bool){\r\n       return true;\r\n   }\r\n}",
  "sourcePath": "C:\\dev\\klaytn\\donation\\contracts\\Donation.sol",
  "compiler": {
    "name": "solc",
    "version": "0.4.25+commit.59dbf8f1.Emscripten.clang"
  },
  "schemaVersion": "2.0.2",
  "updatedAt": "2019-08-07T06:38:57.029Z"
}